{
  "_format": "hh-sol-artifact-1",
  "contractName": "MockZkVerifier",
  "sourceName": "@fhenixprotocol/cofhe-mock-contracts/MockZkVerifier.sol",
  "abi": [
    {
      "inputs": [],
      "name": "InvalidInputs",
      "type": "error"
    },
    {
      "inputs": [],
      "name": "exists",
      "outputs": [
        {
          "internalType": "bool",
          "name": "",
          "type": "bool"
        }
      ],
      "stateMutability": "pure",
      "type": "function"
    },
    {
      "inputs": [
        {
          "internalType": "uint256",
          "name": "ctHash",
          "type": "uint256"
        },
        {
          "internalType": "uint256",
          "name": "value",
          "type": "uint256"
        }
      ],
      "name": "insertCtHash",
      "outputs": [],
      "stateMutability": "nonpayable",
      "type": "function"
    },
    {
      "inputs": [
        {
          "internalType": "uint256[]",
          "name": "ctHashes",
          "type": "uint256[]"
        },
        {
          "internalType": "uint256[]",
          "name": "values",
          "type": "uint256[]"
        }
      ],
      "name": "insertPackedCtHashes",
      "outputs": [],
      "stateMutability": "nonpayable",
      "type": "function"
    },
    {
      "inputs": [
        {
          "internalType": "uint256",
          "name": "value",
          "type": "uint256"
        },
        {
          "internalType": "uint8",
          "name": "utype",
          "type": "uint8"
        },
        {
          "internalType": "address",
          "name": "user",
          "type": "address"
        },
        {
          "internalType": "uint8",
          "name": "securityZone",
          "type": "uint8"
        },
        {
          "internalType": "uint256",
          "name": "",
          "type": "uint256"
        }
      ],
      "name": "zkVerify",
      "outputs": [
        {
          "components": [
            {
              "internalType": "uint256",
              "name": "ctHash",
              "type": "uint256"
            },
            {
              "internalType": "uint8",
              "name": "securityZone",
              "type": "uint8"
            },
            {
              "internalType": "uint8",
              "name": "utype",
              "type": "uint8"
            },
            {
              "internalType": "bytes",
              "name": "signature",
              "type": "bytes"
            }
          ],
          "internalType": "struct EncryptedInput",
          "name": "",
          "type": "tuple"
        }
      ],
      "stateMutability": "nonpayable",
      "type": "function"
    },
    {
      "inputs": [
        {
          "internalType": "uint256",
          "name": "value",
          "type": "uint256"
        },
        {
          "internalType": "uint8",
          "name": "utype",
          "type": "uint8"
        },
        {
          "internalType": "address",
          "name": "user",
          "type": "address"
        },
        {
          "internalType": "uint8",
          "name": "securityZone",
          "type": "uint8"
        },
        {
          "internalType": "uint256",
          "name": "",
          "type": "uint256"
        }
      ],
      "name": "zkVerifyCalcCtHash",
      "outputs": [
        {
          "internalType": "uint256",
          "name": "ctHash",
          "type": "uint256"
        }
      ],
      "stateMutability": "view",
      "type": "function"
    },
    {
      "inputs": [
        {
          "internalType": "uint256[]",
          "name": "values",
          "type": "uint256[]"
        },
        {
          "internalType": "uint8[]",
          "name": "utypes",
          "type": "uint8[]"
        },
        {
          "internalType": "address",
          "name": "user",
          "type": "address"
        },
        {
          "internalType": "uint8",
          "name": "securityZone",
          "type": "uint8"
        },
        {
          "internalType": "uint256",
          "name": "chainId",
          "type": "uint256"
        }
      ],
      "name": "zkVerifyCalcCtHashesPacked",
      "outputs": [
        {
          "internalType": "uint256[]",
          "name": "ctHashes",
          "type": "uint256[]"
        }
      ],
      "stateMutability": "view",
      "type": "function"
    },
    {
      "inputs": [
        {
          "internalType": "uint256[]",
          "name": "values",
          "type": "uint256[]"
        },
        {
          "internalType": "uint8[]",
          "name": "utypes",
          "type": "uint8[]"
        },
        {
          "internalType": "address",
          "name": "user",
          "type": "address"
        },
        {
          "internalType": "uint8",
          "name": "securityZone",
          "type": "uint8"
        },
        {
          "internalType": "uint256",
          "name": "chainId",
          "type": "uint256"
        }
      ],
      "name": "zkVerifyPacked",
      "outputs": [
        {
          "components": [
            {
              "internalType": "uint256",
              "name": "ctHash",
              "type": "uint256"
            },
            {
              "internalType": "uint8",
              "name": "securityZone",
              "type": "uint8"
            },
            {
              "internalType": "uint8",
              "name": "utype",
              "type": "uint8"
            },
            {
              "internalType": "bytes",
              "name": "signature",
              "type": "bytes"
            }
          ],
          "internalType": "struct EncryptedInput[]",
          "name": "inputs",
          "type": "tuple[]"
        }
      ],
      "stateMutability": "nonpayable",
      "type": "function"
    }
  ],
  "bytecode": "0x60806040525f80553480156011575f80fd5b50610a598061001f5f395ff3fe608060405234801561000f575f80fd5b506004361061007a575f3560e01c8063772de59611610058578063772de596146100c7578063a2616ba9146100e7578063a9f046cd14610107578063d2a0693e1461011a575f80fd5b8063267c4ae41461007e5780635946761f1461009257806366dfcfc6146100b2575b5f80fd5b604051600181526020015b60405180910390f35b6100a56100a03660046106d0565b61013b565b604051610089919061080f565b6100c56100c0366004610871565b610244565b005b6100da6100d53660046106d0565b6102c5565b6040516100899190610891565b6100fa6100f53660046108d4565b61039e565b6040516100899190610906565b6100c561011536600461091f565b610419565b61012d6101283660046108d4565b61046d565b604051908152602001610089565b6060855185511461015f576040516379a67d5b60e11b815260040160405180910390fd5b845167ffffffffffffffff811115610179576101796105d1565b6040519080825280602002602001820160405280156101c857816020015b604080516080810182525f80825260208083018290529282015260608082015282525f199092019101816101975790505b5090505f5b855181101561023a576102158782815181106101eb576101eb61097f565b60200260200101518783815181106102055761020561097f565b602002602001015187878761039e565b8282815181106102275761022761097f565b60209081029190910101526001016101cd565b5095945050505050565b604051630ad2437f60e11b8152600481018390526024810182905273ea30c4b8b44078bbf8a6ef5b9f1ec1626c7848d9906315a486fe906044015f604051808303815f87803b158015610295575f80fd5b505af11580156102a7573d5f803e3d5ffd5b5050505060015f808282546102bc91906109a7565b90915550505050565b606085518551146102e9576040516379a67d5b60e11b815260040160405180910390fd5b845167ffffffffffffffff811115610303576103036105d1565b60405190808252806020026020018201604052801561032c578160200160208202803683370190505b5090505f5b855181101561023a5761037987828151811061034f5761034f61097f565b60200260200101518783815181106103695761036961097f565b602002602001015187878761046d565b82828151811061038b5761038b61097f565b6020908102919091010152600101610331565b604080516080810182525f80825260208201819052918101829052606080820152906103cc8587868a610484565b90506103d88188610244565b60405180608001604052808281526020018560ff1681526020018760ff16815260200160405180602001604052805f81525081525091505095945050505050565b5f5b8251811015610468576104608382815181106104395761043961097f565b60200260200101518383815181106104535761045361097f565b6020026020010151610244565b60010161041b565b505050565b5f61047a84868589610484565b9695505050505050565b5f8061048f83610548565b60405160200161049f91906109d1565b6040516020818303038152906040529050806104c3876001600160a01b0316610548565b6040516020016104d49291906109dc565b60408051601f198184030181528282525f5460208401529250829101604051602081830303815290604052805190602001206040516020016105179291906109f8565b60408051601f198184030181529190528051602082012090915061053d8186885f610578565b979650505050505050565b6040805160208082528183019092526060915f919060208201818036833750505060208101939093525090919050565b5f61058661ffff5f19610a10565b851690505f8460ff16600861059b85876105ab565b901b179190911795945050505050565b5f607f8216836105bb575f6105c7565b6105c7607f60ff610a10565b1790505b92915050565b634e487b7160e01b5f52604160045260245ffd5b604051601f8201601f1916810167ffffffffffffffff8111828210171561060e5761060e6105d1565b604052919050565b5f67ffffffffffffffff82111561062f5761062f6105d1565b5060051b60200190565b5f82601f830112610648575f80fd5b8135602061065d61065883610616565b6105e5565b8083825260208201915060208460051b87010193508684111561067e575f80fd5b602086015b8481101561069a5780358352918301918301610683565b509695505050505050565b803560ff811681146106b5575f80fd5b919050565b80356001600160a01b03811681146106b5575f80fd5b5f805f805f60a086880312156106e4575f80fd5b853567ffffffffffffffff808211156106fb575f80fd5b61070789838a01610639565b965060209150818801358181111561071d575f80fd5b88019050601f8101891361072f575f80fd5b803561073d61065882610616565b81815260059190911b8201830190838101908b83111561075b575f80fd5b928401925b8284101561078057610771846106a5565b82529284019290840190610760565b8098505050505050610794604087016106ba565b92506107a2606087016106a5565b949793965091946080013592915050565b8051825260ff602082015116602083015260ff60408201511660408301525f6060820151608060608501528051806080860152806020830160a087015e5f60a0828701015260a0601f19601f8301168601019250505092915050565b5f60208083016020845280855180835260408601915060408160051b8701019250602087015f5b8281101561086457603f198886030184526108528583516107b3565b94509285019290850190600101610836565b5092979650505050505050565b5f8060408385031215610882575f80fd5b50508035926020909101359150565b602080825282518282018190525f9190848201906040850190845b818110156108c8578351835292840192918401916001016108ac565b50909695505050505050565b5f805f805f60a086880312156108e8575f80fd5b853594506108f8602087016106a5565b9350610794604087016106ba565b602081525f61091860208301846107b3565b9392505050565b5f8060408385031215610930575f80fd5b823567ffffffffffffffff80821115610947575f80fd5b61095386838701610639565b93506020850135915080821115610968575f80fd5b5061097585828601610639565b9150509250929050565b634e487b7160e01b5f52603260045260245ffd5b634e487b7160e01b5f52601160045260245ffd5b808201808211156105cb576105cb610993565b5f81518060208401855e5f93019283525090919050565b5f61091882846109ba565b5f6109f06109ea83866109ba565b846109ba565b949350505050565b5f610a0382856109ba565b9283525050602001919050565b818103818111156105cb576105cb61099356fea264697066735822122030ed1964d35c9ec2f4d31f89a32e85045642ac6f8ca7cea251d276f2bffa2e7f64736f6c63430008190033",
  "linkReferences": {},
  "deployedLinkReferences": {}
}