{
  "_format": "hh-sol-artifact-1",
  "contractName": "FugaziRouter",
  "sourceName": "contracts/FugaziRouter.sol",
  "abi": [
    {
      "inputs": [
        {
          "internalType": "address",
          "name": "_factory",
          "type": "address"
        }
      ],
      "stateMutability": "nonpayable",
      "type": "constructor"
    },
    {
      "inputs": [
        {
          "internalType": "address",
          "name": "token",
          "type": "address"
        }
      ],
      "name": "SafeERC20FailedOperation",
      "type": "error"
    },
    {
      "inputs": [
        {
          "internalType": "address",
          "name": "tokenA",
          "type": "address"
        },
        {
          "internalType": "address",
          "name": "tokenB",
          "type": "address"
        },
        {
          "internalType": "uint256",
          "name": "amountA",
          "type": "uint256"
        },
        {
          "internalType": "uint256",
          "name": "amountB",
          "type": "uint256"
        }
      ],
      "name": "addLiquidity",
      "outputs": [],
      "stateMutability": "nonpayable",
      "type": "function"
    },
    {
      "inputs": [
        {
          "internalType": "address",
          "name": "tokenA",
          "type": "address"
        },
        {
          "internalType": "address",
          "name": "tokenB",
          "type": "address"
        },
        {
          "internalType": "uint32",
          "name": "batch",
          "type": "uint32"
        }
      ],
      "name": "claimOutput",
      "outputs": [],
      "stateMutability": "nonpayable",
      "type": "function"
    },
    {
      "inputs": [],
      "name": "factory",
      "outputs": [
        {
          "internalType": "address",
          "name": "",
          "type": "address"
        }
      ],
      "stateMutability": "view",
      "type": "function"
    },
    {
      "inputs": [
        {
          "internalType": "address",
          "name": "tokenIn",
          "type": "address"
        },
        {
          "internalType": "address",
          "name": "tokenOut",
          "type": "address"
        },
        {
          "components": [
            {
              "internalType": "uint256",
              "name": "ctHash",
              "type": "uint256"
            },
            {
              "internalType": "uint8",
              "name": "securityZone",
              "type": "uint8"
            },
            {
              "internalType": "uint8",
              "name": "utype",
              "type": "uint8"
            },
            {
              "internalType": "bytes",
              "name": "signature",
              "type": "bytes"
            }
          ],
          "internalType": "struct InEuint128",
          "name": "encAmount",
          "type": "tuple"
        },
        {
          "components": [
            {
              "internalType": "uint256",
              "name": "ctHash",
              "type": "uint256"
            },
            {
              "internalType": "uint8",
              "name": "securityZone",
              "type": "uint8"
            },
            {
              "internalType": "uint8",
              "name": "utype",
              "type": "uint8"
            },
            {
              "internalType": "bytes",
              "name": "signature",
              "type": "bytes"
            }
          ],
          "internalType": "struct InEbool",
          "name": "encIsBuy",
          "type": "tuple"
        }
      ],
      "name": "submitOrder",
      "outputs": [],
      "stateMutability": "nonpayable",
      "type": "function"
    }
  ],
  "bytecode": "0x6080604052348015600e575f80fd5b50604051610859380380610859833981016040819052602b91604e565b5f80546001600160a01b0319166001600160a01b03929092169190911790556079565b5f60208284031215605d575f80fd5b81516001600160a01b03811681146072575f80fd5b9392505050565b6107d3806100865f395ff3fe608060405234801561000f575f80fd5b506004361061004a575f3560e01c8063495ead021461004e578063c45a015514610063578063cc5e768f14610091578063cf6c62ea146100a4575b5f80fd5b61006161005c36600461049a565b6100b7565b005b5f54610075906001600160a01b031681565b6040516001600160a01b03909116815260200160405180910390f35b61006161009f366004610632565b610125565b6100616100b23660046106b6565b610195565b5f6100c28484610311565b604051635b0bc07360e01b815263ffffffff841660048201529091506001600160a01b03821690635b0bc073906024015f604051808303815f87803b158015610109575f80fd5b505af115801561011b573d5f803e3d5ffd5b5050505050505050565b5f6101308585610311565b60405163ba1a5f2160e01b81529091506001600160a01b0382169063ba1a5f21906101619086908690600401610755565b5f604051808303815f87803b158015610178575f80fd5b505af115801561018a573d5f803e3d5ffd5b505050505050505050565b5f6101a08585610311565b90505f846001600160a01b0316866001600160a01b0316106101c35784866101c6565b85855b5090505f80826001600160a01b0316886001600160a01b0316146101eb5784866101ee565b85855b91509150610269338584876001600160a01b0316630dfe16816040518163ffffffff1660e01b8152600401602060405180830381865afa158015610234573d5f803e3d5ffd5b505050506040513d601f19601f820116820180604052508101906102589190610782565b6001600160a01b03169291906103da565b6102ab338583876001600160a01b031663d21220a76040518163ffffffff1660e01b8152600401602060405180830381865afa158015610234573d5f803e3d5ffd5b604051634e6a20ed60e11b815260048101839052602481018290526001600160a01b03851690639cd441da906044015f604051808303815f87803b1580156102f1575f80fd5b505af1158015610303573d5f803e3d5ffd5b505050505050505050505050565b5f805460405163298d501f60e11b81526001600160a01b03858116600483015284811660248301528392169063531aa03e90604401602060405180830381865afa158015610361573d5f803e3d5ffd5b505050506040513d601f19601f820116820180604052508101906103859190610782565b90506001600160a01b0381166103d35760405162461bcd60e51b815260206004820152600e60248201526d1c1bdbdb081b9bdd08199bdd5b9960921b60448201526064015b60405180910390fd5b9392505050565b6103e8848484846001610416565b61041057604051635274afe760e01b81526001600160a01b03851660048201526024016103ca565b50505050565b6040516323b872dd60e01b5f8181526001600160a01b038781166004528616602452604485905291602083606481808c5af1925060015f51148316610472578383151615610466573d5f823e3d81fd5b5f883b113d1516831692505b604052505f60605295945050505050565b6001600160a01b0381168114610497575f80fd5b50565b5f805f606084860312156104ac575f80fd5b83356104b781610483565b925060208401356104c781610483565b9150604084013563ffffffff811681146104df575f80fd5b809150509250925092565b634e487b7160e01b5f52604160045260245ffd5b6040516080810167ffffffffffffffff81118282101715610521576105216104ea565b60405290565b604051601f8201601f1916810167ffffffffffffffff81118282101715610550576105506104ea565b604052919050565b803560ff81168114610568575f80fd5b919050565b5f6080828403121561057d575f80fd5b6105856104fe565b9050813581526020610598818401610558565b818301526105a860408401610558565b6040830152606083013567ffffffffffffffff808211156105c7575f80fd5b818501915085601f8301126105da575f80fd5b8135818111156105ec576105ec6104ea565b6105fe601f8201601f19168501610527565b91508082528684828501011115610613575f80fd5b80848401858401375f8482840101525080606085015250505092915050565b5f805f8060808587031215610645575f80fd5b843561065081610483565b9350602085013561066081610483565b9250604085013567ffffffffffffffff8082111561067c575f80fd5b6106888883890161056d565b9350606087013591508082111561069d575f80fd5b506106aa8782880161056d565b91505092959194509250565b5f805f80608085870312156106c9575f80fd5b84356106d481610483565b935060208501356106e481610483565b93969395505050506040820135916060013590565b8051825260ff602082015116602083015260ff60408201511660408301525f6060820151608060608501528051806080860152806020830160a087015e5f60a0828701015260a0601f19601f8301168601019250505092915050565b604081525f61076760408301856106f9565b828103602084015261077981856106f9565b95945050505050565b5f60208284031215610792575f80fd5b81516103d38161048356fea26469706673582212204fc32b5668525bc438f7bddaae050844035882f4e2febc0eda667ebff3b9fe6f64736f6c63430008190033",
  "linkReferences": {},
  "deployedLinkReferences": {}
}