{
  "_format": "hh-sol-artifact-1",
  "contractName": "FugaziFactory",
  "sourceName": "contracts/FugaziFactory.sol",
  "abi": [
    {
      "inputs": [
        {
          "internalType": "address",
          "name": "_keeper",
          "type": "address"
        }
      ],
      "stateMutability": "nonpayable",
      "type": "constructor"
    },
    {
      "anonymous": false,
      "inputs": [
        {
          "indexed": true,
          "internalType": "address",
          "name": "token0",
          "type": "address"
        },
        {
          "indexed": true,
          "internalType": "address",
          "name": "token1",
          "type": "address"
        },
        {
          "indexed": false,
          "internalType": "address",
          "name": "pool",
          "type": "address"
        }
      ],
      "name": "PoolCreated",
      "type": "event"
    },
    {
      "inputs": [
        {
          "internalType": "uint256",
          "name": "",
          "type": "uint256"
        }
      ],
      "name": "allPools",
      "outputs": [
        {
          "internalType": "address",
          "name": "",
          "type": "address"
        }
      ],
      "stateMutability": "view",
      "type": "function"
    },
    {
      "inputs": [],
      "name": "allPoolsLength",
      "outputs": [
        {
          "internalType": "uint256",
          "name": "",
          "type": "uint256"
        }
      ],
      "stateMutability": "view",
      "type": "function"
    },
    {
      "inputs": [
        {
          "internalType": "address",
          "name": "tokenA",
          "type": "address"
        },
        {
          "internalType": "address",
          "name": "tokenB",
          "type": "address"
        },
        {
          "internalType": "uint32",
          "name": "batchSize",
          "type": "uint32"
        }
      ],
      "name": "createPool",
      "outputs": [
        {
          "internalType": "address",
          "name": "pool",
          "type": "address"
        }
      ],
      "stateMutability": "nonpayable",
      "type": "function"
    },
    {
      "inputs": [
        {
          "internalType": "address",
          "name": "",
          "type": "address"
        },
        {
          "internalType": "address",
          "name": "",
          "type": "address"
        }
      ],
      "name": "getPool",
      "outputs": [
        {
          "internalType": "address",
          "name": "",
          "type": "address"
        }
      ],
      "stateMutability": "view",
      "type": "function"
    },
    {
      "inputs": [],
      "name": "keeper",
      "outputs": [
        {
          "internalType": "address",
          "name": "",
          "type": "address"
        }
      ],
      "stateMutability": "view",
      "type": "function"
    }
  ],
  "bytecode": "0x6080604052348015600e575f80fd5b5060405161269d38038061269d833981016040819052602b91604f565b600280546001600160a01b0319166001600160a01b0392909216919091179055607a565b5f60208284031215605e575f80fd5b81516001600160a01b03811681146073575f80fd5b9392505050565b612616806100875f395ff3fe608060405234801561000f575f80fd5b5060043610610055575f3560e01c806341d1de9714610059578063531aa03e146100895780638fd64840146100b9578063aced1661146100cc578063efde4e64146100df575b5f80fd5b61006c61006736600461037e565b6100f0565b6040516001600160a01b0390911681526020015b60405180910390f35b61006c6100973660046103b0565b5f6020818152928152604080822090935290815220546001600160a01b031681565b61006c6100c73660046103e1565b610118565b60025461006c906001600160a01b031681565b600154604051908152602001610080565b600181815481106100ff575f80fd5b5f918252602090912001546001600160a01b0316905081565b5f826001600160a01b0316846001600160a01b0316036101725760405162461bcd60e51b815260206004820152601060248201526f6964656e746963616c20746f6b656e7360801b60448201526064015b60405180910390fd5b5f80846001600160a01b0316866001600160a01b031610610194578486610197565b85855b90925090506001600160a01b0382166101e15760405162461bcd60e51b815260206004820152600c60248201526b7a65726f206164647265737360a01b6044820152606401610169565b6001600160a01b038281165f90815260208181526040808320858516845290915290205416156102415760405162461bcd60e51b815260206004820152600b60248201526a706f6f6c2065786973747360a81b6044820152606401610169565b6002546040518391839187916001600160a01b03169061026090610371565b6001600160a01b039485168152928416602084015263ffffffff9091166040830152919091166060820152608001604051809103905ff0801580156102a7573d5f803e3d5ffd5b506001600160a01b038381165f8181526020818152604080832087861680855290835281842080546001600160a01b03199081169789169788179091558484528285208686528452828520805482168817905560018054808201825595527fb10e2d527612073b26eecdfd717e6a320cf44b4afac2b0732d9fcbe2b7fa0cf690940180549094168617909355519384529396509290917f9c5d829b9b23efc461f9aeef91979ec04bb903feb3bee4f26d22114abfc7335b910160405180910390a350509392505050565b6121b38061042e83390190565b5f6020828403121561038e575f80fd5b5035919050565b80356001600160a01b03811681146103ab575f80fd5b919050565b5f80604083850312156103c1575f80fd5b6103ca83610395565b91506103d860208401610395565b90509250929050565b5f805f606084860312156103f3575f80fd5b6103fc84610395565b925061040a60208501610395565b9150604084013563ffffffff81168114610422575f80fd5b80915050925092509256fe608060405234801561000f575f80fd5b506040516121b33803806121b383398101604081905261002e9161031a565b826001600160a01b0316846001600160a01b0316106100825760405162461bcd60e51b815260206004820152600b60248201526a3a37b5b2b71037b93232b960a91b60448201526064015b60405180910390fd5b5f80546001600160a01b038087166001600160a01b031992831617835560018054878316931692909217909155600280546001600160c01b031963ffffffff8716600160c01b02166001600160e01b03199091161791841691909117600160a01b179055436003556100f39061010a565b60078190556101019061011b565b50505050610434565b5f6101158282610184565b92915050565b604051631974142760e21b81526004810182905230602482015273ea30c4b8b44078bbf8a6ef5b9f1ec1626c7848d9906365d0509c906044015f604051808303815f87803b15801561016b575f80fd5b505af115801561017d573d5f803e3d5ffd5b5050505050565b5f806101928460068561019a565b949350505050565b604080515f8082526020820190925273ea30c4b8b44078bbf8a6ef5b9f1ec1626c7848d990631888debd908590601a906101e08960ff8a166101db8a61023f565b610274565b6040518563ffffffff1660e01b81526004016101ff94939291906103af565b6020604051808303815f875af115801561021b573d5f803e3d5ffd5b505050506040513d601f19601f820116820180604052508101906101929190610409565b5f808260030b121561026a576040516311ead17f60e31b8152600383900b6004820152602401610079565b5063ffffffff1690565b604080516003808252608082019092526060915f919060208201848036833701905050905084815f815181106102ac576102ac610420565b60200260200101818152505083816001815181106102cc576102cc610420565b60200260200101818152505082816002815181106102ec576102ec610420565b6020908102919091010152949350505050565b80516001600160a01b0381168114610315575f80fd5b919050565b5f805f806080858703121561032d575f80fd5b610336856102ff565b9350610344602086016102ff565b9250604085015163ffffffff8116811461035c575f80fd5b915061036a606086016102ff565b905092959194509250565b5f815180845260208085019450602084015f5b838110156103a457815187529582019590820190600101610388565b509495945050505050565b60ff851681525f602085106103d257634e487b7160e01b5f52602160045260245ffd5b846020830152608060408301526103ec6080830185610375565b82810360608401526103fe8185610375565b979650505050505050565b5f60208284031215610419575f80fd5b5051919050565b634e487b7160e01b5f52603260045260245ffd5b611d72806104415f395ff3fe608060405234801561000f575f80fd5b506004361061013d575f3560e01c80639cd441da116100b4578063bea2a18111610079578063bea2a18114610328578063beeae2cc1461033b578063d21220a714610343578063e16a069714610356578063ebe5c1261461037b578063f4daaba11461038e575f80fd5b80639cd441da146102c5578063a1191169146102d8578063aced1661146102e0578063b1e76f39146102f3578063ba1a5f2114610315575f80fd5b80632bca85cb116101055780632bca85cb146102165780635b0bc0731461021f57806376cd940e1461023457806380233e1c14610260578063873b461d146102855780639350465814610298575f80fd5b8063094c1301146101415780630dfe16811461017357806312fcf3031461019d5780631abfce90146101cf5780632755befa146101f7575b5f80fd5b61016061014f3660046118b6565b600c6020525f908152604090205481565b6040519081526020015b60405180910390f35b5f54610185906001600160a01b031681565b6040516001600160a01b03909116815260200161016a565b6101bf6101ab3660046118b6565b600e6020525f908152604090205460ff1681565b604051901515815260200161016a565b6101e26101dd3660046118e5565b6103a5565b6040805192835290151560208301520161016a565b6101606102053660046118b6565b600d6020525f908152604090205481565b61016060035481565b61023261022d3660046118b6565b6103dc565b005b60025461024b90600160a01b900463ffffffff1681565b60405163ffffffff909116815260200161016a565b610268610518565b60408051938452602084019290925215159082015260600161016a565b610232610293366004611a41565b61056a565b6101bf6102a6366004611a73565b601160209081525f928352604080842090915290825290205460ff1681565b6102326102d3366004611aa4565b61065d565b610232610726565b600254610185906001600160a01b031681565b6101bf6103013660046118b6565b600f6020525f908152604090205460ff1681565b610232610323366004611ac4565b610768565b6102326103363660046118b6565b610874565b610232610b5d565b600154610185906001600160a01b031681565b61024b6103643660046118b6565b63ffffffff165f908152600a602052604090205490565b610232610389366004611b24565b610b75565b60025461024b90600160c01b900463ffffffff1681565b6001600160a01b0381165f9081526012602052604081205481906103c890610c9e565b6001600160801b0390911694909350915050565b63ffffffff81165f908152600e602052604090205460ff1661043a5760405162461bcd60e51b815260206004820152601260248201527118985d18da081b9bdd08195e1958dd5d195960721b60448201526064015b60405180910390fd5b63ffffffff81165f90815260116020908152604080832033845290915290205460ff161561049c5760405162461bcd60e51b815260206004820152600f60248201526e185b1c9958591e4818db185a5b5959608a1b6044820152606401610431565b63ffffffff81165f81815260116020908152604080832033808552908352818420805460ff191660011790559383526010825280832093835292905220546104e390610cb7565b60405163ffffffff82169033907f3a79c2fe1b403080aeabed0dfaff924d282eaa518d338d81073acfbd79d9c503905f90a350565b5f805f805f610528600454610c9e565b91506001600160801b031691505f80610542600554610c9e565b91506001600160801b03169150838284801561055b5750825b96509650965050505050909192565b6002546001600160a01b031633146105945760405162461bcd60e51b815260040161043190611b54565b600254600160a01b900463ffffffff165f818152600f602052604090205460ff16156105f15760405162461bcd60e51b815260206004820152600c60248201526b6e6f6973652065786973747360a01b6044820152606401610431565b5f6105fb83610cdd565b905061060681610d79565b63ffffffff82165f818152600b60209081526040808320859055600f909152808220805460ff19166001179055517f22a57e82482058eb28ce8ad7926093a2d1e46fe7ab4f89ed0eaec027139bc9c89190a2505050565b5f8211801561066b57505f81115b6106a55760405162461bcd60e51b815260206004820152600b60248201526a1e995c9bc8185b5bdd5b9d60aa1b6044820152606401610431565b5f546106bc906001600160a01b0316333085610de3565b6001546106d4906001600160a01b0316333084610de3565b6106de8282610e1f565b6106e782610e7f565b604080518381526020810183905233917fac1d76749e5447b7b16f5ab61447e1bd502f3bb4807af3b28e620d1700a6ee45910160405180910390a25050565b6002546001600160a01b031633146107505760405162461bcd60e51b815260040161043190611b54565b61075b600454610cb7565b610766600554610cb7565b565b600254600160a01b900463ffffffff165f61078284610cdd565b90505f61078e84610f07565b905061079982610d79565b6107a281610d79565b63ffffffff83165f818152600a6020818152604080842081516060810183523381528084018981529281018881528254600180820185558489528689209351600390920290930180546001600160a01b0319166001600160a01b03909216919091178155935184830155516002909301929092559484529190529154909161082991611b8c565b60405163ffffffff80831682529192509085169033907f6078f42f25ab759b80f180391a83f616b9e35b9e754954ef4b24b651d2dadb979060200160405180910390a3505050505050565b60025463ffffffff828116600160a01b90920416146108c35760405162461bcd60e51b815260206004820152600b60248201526a0eee4dedcce40c4c2e8c6d60ab1b6044820152606401610431565b63ffffffff81165f908152600e602052604090205460ff161561091b5760405162461bcd60e51b815260206004820152601060248201526f185b1c9958591e48195e1958dd5d195960821b6044820152606401610431565b63ffffffff81165f908152600c60205260409020546109675760405162461bcd60e51b81526020600482015260086024820152676e6f20707269636560c01b6044820152606401610431565b60025460035461098491600160c01b900463ffffffff1690611b9f565b4310156109c45760405162461bcd60e51b815260206004820152600e60248201526d6261746368206e6f74207269706560901b6044820152606401610431565b63ffffffff81165f908152600a602090815260408083208054600c909352908320549092906109f290610f97565b63ffffffff85165f908152600d602052604081205491925090610a1490610f97565b90505f610a28670de0b6b3a7640000610f97565b9050610a3383610d79565b610a3c82610d79565b610a4581610d79565b610a4e5f610f97565b600855610a5a5f610f97565b600955600854610a6990610d79565b610a74600954610d79565b5f5b8463ffffffff168163ffffffff161015610ac257610aba87878363ffffffff1681548110610aa657610aa6611bb2565b905f5260205f209060030201868686610fa8565b600101610a76565b50610acc866110cc565b63ffffffff86165f908152600e60205260409020805460ff19166001908117909155610af9908790611bc6565b6002805463ffffffff60a01b1916600160a01b63ffffffff93841602179055436003556040518582168152908716907f8d306484f3c50ae98a32a2e8cc00ab442c19f1f8ac2c3c40235fec3ee88226139060200160405180910390a2505050505050565b335f9081526012602052604090205461076690610cb7565b6002546001600160a01b03163314610b9f5760405162461bcd60e51b815260040161043190611b54565b63ffffffff83165f908152600e602052604090205460ff1615610bf75760405162461bcd60e51b815260206004820152601060248201526f185b1c9958591e48195e1958dd5d195960821b6044820152606401610431565b5f82118015610c0557505f81115b610c3e5760405162461bcd60e51b815260206004820152600a6024820152697a65726f20707269636560b01b6044820152606401610431565b63ffffffff83165f818152600c60209081526040808320869055600d82529182902084905581518581529081018490527f74be3b15e2f905fc6829801fe58b01e59cfcf441c331ea9b465282c75f15ef12910160405180910390a2505050565b5f805f80610cab8561117e565b90969095509350505050565b610cc0816111fc565b610cd057610ccd5f610f97565b90505b610cd981611205565b5050565b60408101515f9060069060ff168114610d1c5760408084015190516367cf307160e01b815260ff91821660048201529082166024820152604401610431565b60408051608080820183525f808352602080840182905283850191909152606092830183905283519182018452865182528087015160ff16908201526006928101929092528085015190820152610d7290611273565b9392505050565b604051631974142760e21b81526004810182905230602482015273ea30c4b8b44078bbf8a6ef5b9f1ec1626c7848d9906365d0509c906044015b5f604051808303815f87803b158015610dca575f80fd5b505af1158015610ddc573d5f803e3d5ffd5b5050505050565b610df18484848460016112ee565b610e1957604051635274afe760e01b81526001600160a01b0385166004820152602401610431565b50505050565b5f610e2983610f97565b90505f610e3583610f97565b9050610e4082610d79565b610e4981610d79565b610e556004548361135b565b600455600554610e65908261135b565b600555600454610e7490610d79565b610e19600554610d79565b5f610e8982610f97565b9050610e9481610d79565b335f90815260126020526040902054610ead908261135b565b335f90815260126020526040902055600654610ec9908261135b565b600655335f90815260126020526040902054610ee490610d79565b610eef600654610d79565b335f90815260126020526040902054610cd99061139c565b60408101515f90819060ff1615610f445760408084015190516367cf307160e01b815260ff91821660048201529082166024820152604401610431565b60408051608080820183525f8083526020808401829052838501829052606093840184905284519283018552875183528088015160ff1690830152928101929092528085015190820152610d7290611273565b5f610fa2825f6113da565b92915050565b5f610fc0610fba8660010154866113f0565b83611431565b90505f610fda610fd48760010154866113f0565b84611431565b9050610fe582610d79565b610fee81610d79565b5f610ffe87600201548484611472565b905061100981610d79565b61101b876001015488600201546114cb565b63ffffffff88165f9081526010602090815260408083208a546001600160a01b0316845290915290205461104f908261135b565b63ffffffff89165f9081526010602090815260408083208b546001600160a01b0390811685529252808320939093558954168152205461108e90610d79565b63ffffffff88165f9081526010602090815260408083208a546001600160a01b03168085529252909120546110c291611533565b5050505050505050565b60085460095463ffffffff83165f908152600f602052604090205460ff16156111305763ffffffff83165f908152600b602052604090205461110e838261135b565b925061111a828261135b565b915061112583610d79565b61112e82610d79565b505b61114561113f600454836115a6565b8361135b565b60045560055461115f9061115990846115a6565b8261135b565b60055560045461116e90610d79565b611179600554610d79565b505050565b60405163458693c960e01b8152600481018290525f90819073ea30c4b8b44078bbf8a6ef5b9f1ec1626c7848d99063458693c9906024016040805180830381865afa1580156111cf573d5f803e3d5ffd5b505050506040513d601f19601f820116820180604052508101906111f39190611bea565b91509150915091565b5f811515610fa2565b604051630828982760e01b8152600481018290523360248201525f9073ea30c4b8b44078bbf8a6ef5b9f1ec1626c7848d9906308289827906044015f604051808303815f87803b158015611257575f80fd5b505af1158015611269573d5f803e3d5ffd5b5093949350505050565b6040516313fce3b160e11b81525f9073ea30c4b8b44078bbf8a6ef5b9f1ec1626c7848d9906327f9c762906112ae9085903390600401611c1c565b6020604051808303815f875af11580156112ca573d5f803e3d5ffd5b505050506040513d601f19601f82011682018060405250810190610fa29190611c91565b6040516323b872dd60e01b5f8181526001600160a01b038781166004528616602452604485905291602083606481808c5af1925060015f5114831661134a57838315161561133e573d5f823e3d81fd5b5f883b113d1516831692505b604052505f60605295945050505050565b5f611365836111fc565b611375576113725f610f97565b92505b61137e826111fc565b61138e5761138b5f610f97565b91505b610d726006848460086115e3565b604051631974142760e21b81526004810182905233602482015273ea30c4b8b44078bbf8a6ef5b9f1ec1626c7848d9906365d0509c90604401610db3565b5f806113e884600685611684565b949350505050565b5f6113fa836111fc565b61140a576114075f610f97565b92505b611413826111fc565b611423576114205f610f97565b91505b610d7260068484600f6115e3565b5f61143b836111fc565b61144b576114485f610f97565b92505b611454826111fc565b611464576114615f610f97565b91505b610d7260068484600d6115e3565b5f61147c846111fc565b61148c576114895f611729565b93505b611495836111fc565b6114a5576114a25f610f97565b92505b6114ae826111fc565b6114be576114bb5f610f97565b91505b6113e86006858585611734565b5f6114d98284600754611472565b90505f6114e98360075486611472565b90506114f482610d79565b6114fd81610d79565b6115096008548361135b565b600855600954611519908261135b565b60095560085461152890610d79565b610e19600954610d79565b604051631974142760e21b8152600481018390526001600160a01b038216602482015273ea30c4b8b44078bbf8a6ef5b9f1ec1626c7848d9906365d0509c906044015f604051808303815f87803b15801561158c575f80fd5b505af115801561159e573d5f803e3d5ffd5b505050505050565b5f6115b0836111fc565b6115c0576115bd5f610f97565b92505b6115c9826111fc565b6115d9576115d65f610f97565b91505b610d726006848460075b5f73ea30c4b8b44078bbf8a6ef5b9f1ec1626c7848d9631888debd868461160a888861175d565b604080515f815260208101918290526001600160e01b031960e087901b1690915261163b9392919060248101611ce2565b6020604051808303815f875af1158015611657573d5f803e3d5ffd5b505050506040513d601f19601f8201168201806040525081019061167b9190611c91565b95945050505050565b604080515f8082526020820190925273ea30c4b8b44078bbf8a6ef5b9f1ec1626c7848d990631888debd908590601a906116ca898960ff166116c58a6117c6565b6117fb565b6040518563ffffffff1660e01b81526004016116e99493929190611ce2565b6020604051808303815f875af1158015611705573d5f803e3d5ffd5b505050506040513d601f19601f820116820180604052508101906113e89190611c91565b5f610fa2825f611886565b5f73ea30c4b8b44078bbf8a6ef5b9f1ec1626c7848d9631888debd86600461160a8888886117fb565b60408051600280825260608083018452925f92919060208301908036833701905050905083815f8151811061179457611794611bb2565b60200260200101818152505082816001815181106117b4576117b4611bb2565b60209081029190910101529392505050565b5f808260030b12156117f1576040516311ead17f60e31b8152600383900b6004820152602401610431565b5063ffffffff1690565b604080516003808252608082019092526060915f919060208201848036833701905050905084815f8151811061183357611833611bb2565b602002602001018181525050838160018151811061185357611853611bb2565b602002602001018181525050828160028151811061187357611873611bb2565b6020908102919091010152949350505050565b5f808315611892575060015b5f61167b825f86611684565b803563ffffffff811681146118b1575f80fd5b919050565b5f602082840312156118c6575f80fd5b610d728261189e565b80356001600160a01b03811681146118b1575f80fd5b5f602082840312156118f5575f80fd5b610d72826118cf565b634e487b7160e01b5f52604160045260245ffd5b6040516080810167ffffffffffffffff81118282101715611935576119356118fe565b60405290565b604051601f8201601f1916810167ffffffffffffffff81118282101715611964576119646118fe565b604052919050565b803560ff811681146118b1575f80fd5b5f6080828403121561198c575f80fd5b611994611912565b90508135815260206119a781840161196c565b818301526119b76040840161196c565b6040830152606083013567ffffffffffffffff808211156119d6575f80fd5b818501915085601f8301126119e9575f80fd5b8135818111156119fb576119fb6118fe565b611a0d601f8201601f1916850161193b565b91508082528684828501011115611a22575f80fd5b80848401858401375f8482840101525080606085015250505092915050565b5f60208284031215611a51575f80fd5b813567ffffffffffffffff811115611a67575f80fd5b6113e88482850161197c565b5f8060408385031215611a84575f80fd5b611a8d8361189e565b9150611a9b602084016118cf565b90509250929050565b5f8060408385031215611ab5575f80fd5b50508035926020909101359150565b5f8060408385031215611ad5575f80fd5b823567ffffffffffffffff80821115611aec575f80fd5b611af88683870161197c565b93506020850135915080821115611b0d575f80fd5b50611b1a8582860161197c565b9150509250929050565b5f805f60608486031215611b36575f80fd5b611b3f8461189e565b95602085013595506040909401359392505050565b6020808252600a90820152693737ba1035b2b2b832b960b11b604082015260600190565b634e487b7160e01b5f52601160045260245ffd5b81810381811115610fa257610fa2611b78565b80820180821115610fa257610fa2611b78565b634e487b7160e01b5f52603260045260245ffd5b63ffffffff818116838216019080821115611be357611be3611b78565b5092915050565b5f8060408385031215611bfb575f80fd5b8251915060208301518015158114611c11575f80fd5b809150509250929050565b604081528251604082015260ff602084015116606082015260ff60408401511660808201525f6060840151608060a084015280518060c0850152806020830160e086015e5f60e08286018101919091526001600160a01b03959095166020850152601f01601f19169092019092019392505050565b5f60208284031215611ca1575f80fd5b5051919050565b5f815180845260208085019450602084015f5b83811015611cd757815187529582019590820190600101611cbb565b509495945050505050565b60ff851681525f60208510611d0557634e487b7160e01b5f52602160045260245ffd5b84602083015260806040830152611d1f6080830185611ca8565b8281036060840152611d318185611ca8565b97965050505050505056fea264697066735822122051dfd97335502f6a7c545f8faec7e50c43bf804f63f37b008a2a67031c42a3ca64736f6c63430008190033a264697066735822122019b0b372af9140a24a2defe95d4074394a4086eed9fc2f07b272291d8513400264736f6c63430008190033",
  "linkReferences": {},
  "deployedLinkReferences": {}
}